:100000000C9434000C9449000C9449000C94490061
:100010000C9449000C9449000C9449000C9449003C
:100020000C9449000C9449000C9449000C9449002C
:100030000C9449000C9449000C9449000C9449001C
:100040000C9449000C9449000C9449000C9449000C
:100050000C9449000C9449000C9449000C944900FC
:100060000C9449000C94490011241FBECFEFD4E03A
:10007000DEBFCDBF11E0A0E0B1E0E2E9F2E002C0F6
:1000800005900D92A631B107D9F70E9424010C9476
:1000900047010C940000459A8AE68A95F1F700C062
:1000A0004598089598B1907F98B998B182958F70CE
:1000B000892B88B90C944B00CF93C82F449A0E9487
:1000C00052008C2F8295807F0E94520085EF8A9586
:1000D000F1F70000CF910895CF93C82F44980E9464
:1000E00052008C2F8295807F0E94520080EE8A956C
:1000F000F1F7CF91089582E00E946C008FE39FE1B9
:100100000197F1F700C00000089581E00E946C00A3
:100110008FE39FE10197F1F700C00000089587B1D8
:100120008F6387B988B1807C88B98FE59AEE019793
:10013000F1F700C0000080E30E9452008FE19EE4CE
:100140000197F1F700C000000E944B008FE99FE08B
:100150000197F1F700C000000E944B008FE99FE07B
:100160000197F1F700C0000080E20E9452008FE189
:100170009EE40197F1F700C0000088E20E946C0045
:100180008CE00E946C0086E00E946C000C9485005C
:10019000613019F080580C946C008054FCCFCF93E0
:1001A000DF93EC018991811103C0DF91CF91089514
:1001B0000E945C00F7CF0F931F93CF93DF938B01C7
:1001C00028E0829FC001112480640E946C00E80135
:1001D000085F1F4F89910E945C00C017D107D1F7BB
:1001E00080E8DF91CF911F910F910C946C00CF9319
:1001F000DF93EC01FE018491811103C0DF91CF9167
:1002000008950E945C002196F5CF0F931F93CF9322
:10021000DF938B0128E0829FC001112480640E943B
:100220006C00D0E0C0E0F801EC0FFD1F84910E944B
:100230005C002196C830D105B1F780E8DF91CF91FD
:100240001F910F910C946C000E948F0060E071E090
:1002500080E00E94DB0084E50E945C0085E60E944D
:100260005C0083E70E945C0084E70E945C0061E020
:1002700080E00E94C80088E091E00E94CF0061E029
:100280008FE00E94C80080E00E945C00FFCFF894DD
:02029000FFCF9E
:1002920000000A1F0E14000048656C6C6F20576F37
:0602A200726C64210000F3
:00000001FF
